{
  "_format": "hh3-artifact-1",
  "contractName": "Auction",
  "sourceName": "contracts/Auction.sol",
  "abi": [
    {
      "inputs": [
        {
          "internalType": "uint256",
          "name": "biddingTime",
          "type": "uint256"
        },
        {
          "internalType": "address payable",
          "name": "beneficiaryAddress",
          "type": "address"
        }
      ],
      "stateMutability": "nonpayable",
      "type": "constructor"
    },
    {
      "inputs": [],
      "name": "AuctionAlreadyEnded",
      "type": "error"
    },
    {
      "inputs": [],
      "name": "AuctionEndAlreadyCalled",
      "type": "error"
    },
    {
      "inputs": [],
      "name": "AuctionNotYetEnded",
      "type": "error"
    },
    {
      "inputs": [
        {
          "internalType": "uint256",
          "name": "highestBid",
          "type": "uint256"
        }
      ],
      "name": "BidNotHighEnough",
      "type": "error"
    },
    {
      "anonymous": false,
      "inputs": [
        {
          "indexed": false,
          "internalType": "address",
          "name": "winner",
          "type": "address"
        },
        {
          "indexed": false,
          "internalType": "uint256",
          "name": "amount",
          "type": "uint256"
        }
      ],
      "name": "AuctionEnded",
      "type": "event"
    },
    {
      "anonymous": false,
      "inputs": [
        {
          "indexed": false,
          "internalType": "address",
          "name": "bidder",
          "type": "address"
        },
        {
          "indexed": false,
          "internalType": "uint256",
          "name": "amount",
          "type": "uint256"
        }
      ],
      "name": "HighestBidIncreased",
      "type": "event"
    },
    {
      "inputs": [],
      "name": "auctionEnd",
      "outputs": [],
      "stateMutability": "nonpayable",
      "type": "function"
    },
    {
      "inputs": [],
      "name": "auctionEndTime",
      "outputs": [
        {
          "internalType": "uint256",
          "name": "",
          "type": "uint256"
        }
      ],
      "stateMutability": "view",
      "type": "function"
    },
    {
      "inputs": [],
      "name": "beneficiary",
      "outputs": [
        {
          "internalType": "address payable",
          "name": "",
          "type": "address"
        }
      ],
      "stateMutability": "view",
      "type": "function"
    },
    {
      "inputs": [],
      "name": "bid",
      "outputs": [],
      "stateMutability": "payable",
      "type": "function"
    },
    {
      "inputs": [],
      "name": "highestBid",
      "outputs": [
        {
          "internalType": "uint256",
          "name": "",
          "type": "uint256"
        }
      ],
      "stateMutability": "view",
      "type": "function"
    },
    {
      "inputs": [],
      "name": "highestBidder",
      "outputs": [
        {
          "internalType": "address",
          "name": "",
          "type": "address"
        }
      ],
      "stateMutability": "view",
      "type": "function"
    },
    {
      "inputs": [],
      "name": "withdraw",
      "outputs": [
        {
          "internalType": "bool",
          "name": "",
          "type": "bool"
        }
      ],
      "stateMutability": "nonpayable",
      "type": "function"
    }
  ],
  "bytecode": "0x6080604052348015600f57600080fd5b5060405161049c38038061049c833981016040819052602c916059565b600080546001600160a01b0319166001600160a01b038316179055604f82426094565b6001555060ba9050565b60008060408385031215606b57600080fd5b825160208401519092506001600160a01b0381168114608957600080fd5b809150509250929050565b8082018082111560b457634e487b7160e01b600052601160045260246000fd5b92915050565b6103d3806100c96000396000f3fe6080604052600436106100705760003560e01c80633ccfd60b1161004e5780633ccfd60b146100d15780634b449cba146100f657806391f901571461011a578063d57bde791461013a57600080fd5b80631998aeef146100755780632a24f46c1461007f57806338af3eed14610094575b600080fd5b61007d610150565b005b34801561008b57600080fd5b5061007d610236565b3480156100a057600080fd5b506000546100b4906001600160a01b031681565b6040516001600160a01b0390911681526020015b60405180910390f35b3480156100dd57600080fd5b506100e6610312565b60405190151581526020016100c8565b34801561010257600080fd5b5061010c60015481565b6040519081526020016100c8565b34801561012657600080fd5b506002546100b4906001600160a01b031681565b34801561014657600080fd5b5061010c60035481565b6001544211156101735760405163d02e774d60e01b815260040160405180910390fd5b60035434116101a457600354604051634e12c1bb60e01b815260040161019b91815260200190565b60405180910390fd5b600354156101df576003546002546001600160a01b0316600090815260046020526040812080549091906101d9908490610376565b90915550505b600280546001600160a01b031916339081179091553460038190556040805192835260208301919091527ff4757a49b326036464bec6fe419a4ae38c8a02ce3e68bf0809674f6aab8ad300910160405180910390a1565b6001544210156102595760405163044cee2960e41b815260040160405180910390fd5b60055460ff161561027d57604051630c39fb9f60e31b815260040160405180910390fd5b6005805460ff19166001179055600254600354604080516001600160a01b03909316835260208301919091527fdaec4582d5d9595688c8c98545fdd1c696d41c6aeaeb636737e84ed2f5c00eda910160405180910390a1600080546003546040516001600160a01b039092169281156108fc029290818181858888f1935050505015801561030f573d6000803e3d6000fd5b50565b33600090815260046020526040812054801561036e57336000818152600460205260408082208290555183156108fc0291849190818181858888f1935050505061036e5733600090815260046020526040812091909155919050565b600191505090565b8082018082111561039757634e487b7160e01b600052601160045260246000fd5b9291505056fea2646970667358221220c24179b4035f5a9694fe7caddfbaee18007f416a749d5938bd2bd9f6458307d364736f6c634300081c0033",
  "linkReferences": {},
  "deployedLinkReferences": {},
  "immutableReferences": {},
  "inputSourceName": "project/contracts/Auction.sol",
  "buildInfoId": "solc-0_8_28-9c77607d2e0a3294df180d05c7b1de33b94b2d3d"
}